{
  "_format": "hh-sol-artifact-1",
  "contractName": "CrowdFunding",
  "sourceName": "contracts/CrowdFunding.sol",
  "abi": [
    {
      "inputs": [
        {
          "internalType": "address",
          "name": "_token",
          "type": "address"
        }
      ],
      "stateMutability": "nonpayable",
      "type": "constructor"
    },
    {
      "anonymous": false,
      "inputs": [
        {
          "indexed": true,
          "internalType": "uint256",
          "name": "campaignId",
          "type": "uint256"
        },
        {
          "indexed": true,
          "internalType": "address",
          "name": "owner",
          "type": "address"
        },
        {
          "indexed": false,
          "internalType": "string",
          "name": "title",
          "type": "string"
        },
        {
          "indexed": false,
          "internalType": "uint256",
          "name": "target",
          "type": "uint256"
        },
        {
          "indexed": false,
          "internalType": "uint256",
          "name": "deadline",
          "type": "uint256"
        }
      ],
      "name": "CampaignCreated",
      "type": "event"
    },
    {
      "anonymous": false,
      "inputs": [
        {
          "indexed": true,
          "internalType": "uint256",
          "name": "campaignId",
          "type": "uint256"
        },
        {
          "indexed": true,
          "internalType": "address",
          "name": "donor",
          "type": "address"
        },
        {
          "indexed": false,
          "internalType": "uint256",
          "name": "amount",
          "type": "uint256"
        }
      ],
      "name": "DonationReceived",
      "type": "event"
    },
    {
      "anonymous": false,
      "inputs": [
        {
          "indexed": true,
          "internalType": "uint256",
          "name": "campaignId",
          "type": "uint256"
        },
        {
          "indexed": true,
          "internalType": "address",
          "name": "owner",
          "type": "address"
        },
        {
          "indexed": false,
          "internalType": "uint256",
          "name": "amount",
          "type": "uint256"
        }
      ],
      "name": "FundsWithdrawn",
      "type": "event"
    },
    {
      "anonymous": false,
      "inputs": [
        {
          "indexed": true,
          "internalType": "uint256",
          "name": "campaignId",
          "type": "uint256"
        },
        {
          "indexed": true,
          "internalType": "address",
          "name": "donor",
          "type": "address"
        },
        {
          "indexed": false,
          "internalType": "uint256",
          "name": "amount",
          "type": "uint256"
        }
      ],
      "name": "RefundIssued",
      "type": "event"
    },
    {
      "inputs": [
        {
          "internalType": "uint256",
          "name": "",
          "type": "uint256"
        }
      ],
      "name": "campaigns",
      "outputs": [
        {
          "internalType": "address",
          "name": "owner",
          "type": "address"
        },
        {
          "internalType": "string",
          "name": "title",
          "type": "string"
        },
        {
          "internalType": "string",
          "name": "description",
          "type": "string"
        },
        {
          "internalType": "uint256",
          "name": "target",
          "type": "uint256"
        },
        {
          "internalType": "uint256",
          "name": "deadline",
          "type": "uint256"
        },
        {
          "internalType": "uint256",
          "name": "amountCollected",
          "type": "uint256"
        },
        {
          "internalType": "string",
          "name": "image",
          "type": "string"
        },
        {
          "internalType": "bool",
          "name": "fundsWithdrawn",
          "type": "bool"
        },
        {
          "internalType": "bool",
          "name": "refunded",
          "type": "bool"
        }
      ],
      "stateMutability": "view",
      "type": "function"
    },
    {
      "inputs": [
        {
          "internalType": "address",
          "name": "_owner",
          "type": "address"
        },
        {
          "internalType": "string",
          "name": "_title",
          "type": "string"
        },
        {
          "internalType": "string",
          "name": "_description",
          "type": "string"
        },
        {
          "internalType": "uint256",
          "name": "_target",
          "type": "uint256"
        },
        {
          "internalType": "uint256",
          "name": "_deadline",
          "type": "uint256"
        },
        {
          "internalType": "string",
          "name": "_image",
          "type": "string"
        }
      ],
      "name": "createCampaign",
      "outputs": [
        {
          "internalType": "uint256",
          "name": "",
          "type": "uint256"
        }
      ],
      "stateMutability": "nonpayable",
      "type": "function"
    },
    {
      "inputs": [
        {
          "internalType": "uint256",
          "name": "_campaignId",
          "type": "uint256"
        },
        {
          "internalType": "uint256",
          "name": "_amount",
          "type": "uint256"
        }
      ],
      "name": "donateToCampaign",
      "outputs": [],
      "stateMutability": "nonpayable",
      "type": "function"
    },
    {
      "inputs": [
        {
          "internalType": "uint256",
          "name": "",
          "type": "uint256"
        },
        {
          "internalType": "address",
          "name": "",
          "type": "address"
        }
      ],
      "name": "donations",
      "outputs": [
        {
          "internalType": "uint256",
          "name": "",
          "type": "uint256"
        }
      ],
      "stateMutability": "view",
      "type": "function"
    },
    {
      "inputs": [
        {
          "internalType": "uint256",
          "name": "_campaignId",
          "type": "uint256"
        }
      ],
      "name": "getCampaignDetails",
      "outputs": [
        {
          "internalType": "address",
          "name": "owner",
          "type": "address"
        },
        {
          "internalType": "string",
          "name": "title",
          "type": "string"
        },
        {
          "internalType": "string",
          "name": "description",
          "type": "string"
        },
        {
          "internalType": "uint256",
          "name": "target",
          "type": "uint256"
        },
        {
          "internalType": "uint256",
          "name": "deadline",
          "type": "uint256"
        },
        {
          "internalType": "uint256",
          "name": "amountCollected",
          "type": "uint256"
        },
        {
          "internalType": "string",
          "name": "image",
          "type": "string"
        },
        {
          "internalType": "bool",
          "name": "fundsWithdrawn",
          "type": "bool"
        },
        {
          "internalType": "bool",
          "name": "refunded",
          "type": "bool"
        }
      ],
      "stateMutability": "view",
      "type": "function"
    },
    {
      "inputs": [],
      "name": "getCampaigns",
      "outputs": [
        {
          "components": [
            {
              "internalType": "address",
              "name": "owner",
              "type": "address"
            },
            {
              "internalType": "string",
              "name": "title",
              "type": "string"
            },
            {
              "internalType": "string",
              "name": "description",
              "type": "string"
            },
            {
              "internalType": "uint256",
              "name": "target",
              "type": "uint256"
            },
            {
              "internalType": "uint256",
              "name": "deadline",
              "type": "uint256"
            },
            {
              "internalType": "uint256",
              "name": "amountCollected",
              "type": "uint256"
            },
            {
              "internalType": "string",
              "name": "image",
              "type": "string"
            },
            {
              "internalType": "bool",
              "name": "fundsWithdrawn",
              "type": "bool"
            },
            {
              "internalType": "bool",
              "name": "refunded",
              "type": "bool"
            },
            {
              "internalType": "address[]",
              "name": "donators",
              "type": "address[]"
            },
            {
              "internalType": "uint256[]",
              "name": "donations",
              "type": "uint256[]"
            }
          ],
          "internalType": "struct CrowdFunding.Campaign[]",
          "name": "",
          "type": "tuple[]"
        }
      ],
      "stateMutability": "view",
      "type": "function"
    },
    {
      "inputs": [
        {
          "internalType": "uint256",
          "name": "_campaignId",
          "type": "uint256"
        }
      ],
      "name": "getDonators",
      "outputs": [
        {
          "internalType": "address[]",
          "name": "",
          "type": "address[]"
        },
        {
          "internalType": "uint256[]",
          "name": "",
          "type": "uint256[]"
        }
      ],
      "stateMutability": "view",
      "type": "function"
    },
    {
      "inputs": [],
      "name": "numberOfCampaigns",
      "outputs": [
        {
          "internalType": "uint256",
          "name": "",
          "type": "uint256"
        }
      ],
      "stateMutability": "view",
      "type": "function"
    },
    {
      "inputs": [
        {
          "internalType": "uint256",
          "name": "_campaignId",
          "type": "uint256"
        }
      ],
      "name": "refund",
      "outputs": [],
      "stateMutability": "nonpayable",
      "type": "function"
    },
    {
      "inputs": [],
      "name": "token",
      "outputs": [
        {
          "internalType": "contract IERC20",
          "name": "",
          "type": "address"
        }
      ],
      "stateMutability": "view",
      "type": "function"
    },
    {
      "inputs": [
        {
          "internalType": "uint256",
          "name": "_campaignId",
          "type": "uint256"
        }
      ],
      "name": "withdrawFunds",
      "outputs": [],
      "stateMutability": "nonpayable",
      "type": "function"
    }
  ],
  "bytecode": "0x608060405260006003553480156200001657600080fd5b50604051620036363803806200363683398181016040528101906200003c919062000168565b6001600081905550600073ffffffffffffffffffffffffffffffffffffffff168173ffffffffffffffffffffffffffffffffffffffff1603620000b6576040517f08c379a0000000000000000000000000000000000000000000000000000000008152600401620000ad90620001fb565b60405180910390fd5b80600460006101000a81548173ffffffffffffffffffffffffffffffffffffffff021916908373ffffffffffffffffffffffffffffffffffffffff160217905550506200021d565b600080fd5b600073ffffffffffffffffffffffffffffffffffffffff82169050919050565b6000620001308262000103565b9050919050565b620001428162000123565b81146200014e57600080fd5b50565b600081519050620001628162000137565b92915050565b600060208284031215620001815762000180620000fe565b5b6000620001918482850162000151565b91505092915050565b600082825260208201905092915050565b7f496e76616c696420746f6b656e20616464726573730000000000000000000000600082015250565b6000620001e36015836200019a565b9150620001f082620001ab565b602082019050919050565b600060208201905081810360008301526200021681620001d4565b9050919050565b613409806200022d6000396000f3fe608060405234801561001057600080fd5b50600436106100a95760003560e01c80632b7216e5116100715780632b7216e51461016d5780639943e3a114610189578063a6b03633146101b9578063d993de62146101d7578063ee1554a31461020f578063fc0c546a1461023f576100a9565b806307ca140d146100ae5780630fa91fa9146100cc578063141961bc146100fd578063155dd5ee14610135578063278ecde114610151575b600080fd5b6100b661025d565b6040516100c39190611c1f565b60405180910390f35b6100e660048036038101906100e19190611c7a565b610263565b6040516100f4929190611e55565b60405180910390f35b61011760048036038101906101129190611c7a565b6103b9565b60405161012c99989796959493929190611f46565b60405180910390f35b61014f600480360381019061014a9190611c7a565b6105d9565b005b61016b60048036038101906101669190611c7a565b6108c6565b005b61018760048036038101906101829190611fe8565b610ba2565b005b6101a3600480360381019061019e9190612189565b610e4b565b6040516101b09190611c1f565b60405180910390f35b6101c16110b1565b6040516101ce919061256e565b60405180910390f35b6101f160048036038101906101ec9190611c7a565b6114b8565b60405161020699989796959493929190611f46565b60405180910390f35b61022960048036038101906102249190612590565b61174a565b6040516102369190611c1f565b60405180910390f35b61024761176f565b604051610254919061262f565b60405180910390f35b60035481565b60608060035483106102aa576040517f08c379a00000000000000000000000000000000000000000000000000000000081526004016102a190612696565b60405180910390fd5b60016000848152602001908152602001600020600801600160008581526020019081526020016000206009018180548060200260200160405190810160405280929190818152602001828054801561035757602002820191906000526020600020905b8160009054906101000a900473ffffffffffffffffffffffffffffffffffffffff1673ffffffffffffffffffffffffffffffffffffffff168152602001906001019080831161030d575b50505050509150808054806020026020016040519081016040528092919081815260200182805480156103a957602002820191906000526020600020905b815481526020019060010190808311610395575b5050505050905091509150915091565b60016020528060005260406000206000915090508060000160009054906101000a900473ffffffffffffffffffffffffffffffffffffffff1690806001018054610402906126e5565b80601f016020809104026020016040519081016040528092919081815260200182805461042e906126e5565b801561047b5780601f106104505761010080835404028352916020019161047b565b820191906000526020600020905b81548152906001019060200180831161045e57829003601f168201915b505050505090806002018054610490906126e5565b80601f01602080910402602001604051908101604052809291908181526020018280546104bc906126e5565b80156105095780601f106104de57610100808354040283529160200191610509565b820191906000526020600020905b8154815290600101906020018083116104ec57829003601f168201915b505050505090806003015490806004015490806005015490806006018054610530906126e5565b80601f016020809104026020016040519081016040528092919081815260200182805461055c906126e5565b80156105a95780601f1061057e576101008083540402835291602001916105a9565b820191906000526020600020905b81548152906001019060200180831161058c57829003601f168201915b5050505050908060070160009054906101000a900460ff16908060070160019054906101000a900460ff16905089565b6105e1611795565b6003548110610625576040517f08c379a000000000000000000000000000000000000000000000000000000000815260040161061c90612696565b60405180910390fd5b60006001600083815260200190815260200160002090508060000160009054906101000a900473ffffffffffffffffffffffffffffffffffffffff1673ffffffffffffffffffffffffffffffffffffffff163373ffffffffffffffffffffffffffffffffffffffff16146106ce576040517f08c379a00000000000000000000000000000000000000000000000000000000081526004016106c590612762565b60405180910390fd5b80600401544211610714576040517f08c379a000000000000000000000000000000000000000000000000000000000815260040161070b906127ce565b60405180910390fd5b80600301548160050154101561075f576040517f08c379a00000000000000000000000000000000000000000000000000000000081526004016107569061283a565b60405180910390fd5b8060070160009054906101000a900460ff16156107b1576040517f08c379a00000000000000000000000000000000000000000000000000000000081526004016107a8906128a6565b60405180910390fd5b60018160070160006101000a81548160ff0219169083151502179055506108438160000160009054906101000a900473ffffffffffffffffffffffffffffffffffffffff168260050154600460009054906101000a900473ffffffffffffffffffffffffffffffffffffffff1673ffffffffffffffffffffffffffffffffffffffff166117e49092919063ffffffff16565b8060000160009054906101000a900473ffffffffffffffffffffffffffffffffffffffff1673ffffffffffffffffffffffffffffffffffffffff16827ff440aec6b52895984d061d622e6edeba6210f7c3e059be920663140c084560d783600501546040516108b29190611c1f565b60405180910390a3506108c361186a565b50565b6108ce611795565b6003548110610912576040517f08c379a000000000000000000000000000000000000000000000000000000000815260040161090990612696565b60405180910390fd5b60006001600083815260200190815260200160002090508060040154421161096f576040517f08c379a000000000000000000000000000000000000000000000000000000000815260040161096690612912565b60405180910390fd5b80600301548160050154106109b9576040517f08c379a00000000000000000000000000000000000000000000000000000000081526004016109b09061297e565b60405180910390fd5b8060070160019054906101000a900460ff1615610a0b576040517f08c379a0000000000000000000000000000000000000000000000000000000008152600401610a02906129ea565b60405180910390fd5b60006002600084815260200190815260200160002060003373ffffffffffffffffffffffffffffffffffffffff1673ffffffffffffffffffffffffffffffffffffffff16815260200190815260200160002054905060008111610aa3576040517f08c379a0000000000000000000000000000000000000000000000000000000008152600401610a9a90612a56565b60405180910390fd5b60006002600085815260200190815260200160002060003373ffffffffffffffffffffffffffffffffffffffff1673ffffffffffffffffffffffffffffffffffffffff16815260200190815260200160002081905550610b463382600460009054906101000a900473ffffffffffffffffffffffffffffffffffffffff1673ffffffffffffffffffffffffffffffffffffffff166117e49092919063ffffffff16565b3373ffffffffffffffffffffffffffffffffffffffff16837f7a482fdeb6bc9a1376f597068a214a7a39472bb2eff1b8cad21ba04f49ddca1b83604051610b8d9190611c1f565b60405180910390a35050610b9f61186a565b50565b610baa611795565b6003548210610bee576040517f08c379a0000000000000000000000000000000000000000000000000000000008152600401610be590612696565b60405180910390fd5b60008111610c31576040517f08c379a0000000000000000000000000000000000000000000000000000000008152600401610c2890612ae8565b60405180910390fd5b600060016000848152602001908152602001600020905080600401544210610c8e576040517f08c379a0000000000000000000000000000000000000000000000000000000008152600401610c8590612b54565b60405180910390fd5b610cdd333084600460009054906101000a900473ffffffffffffffffffffffffffffffffffffffff1673ffffffffffffffffffffffffffffffffffffffff16611874909392919063ffffffff16565b80600801339080600181540180825580915050600190039060005260206000200160009091909190916101000a81548173ffffffffffffffffffffffffffffffffffffffff021916908373ffffffffffffffffffffffffffffffffffffffff1602179055508060090182908060018154018082558091505060019003906000526020600020016000909190919091505581816005016000828254610d819190612ba3565b92505081905550816002600085815260200190815260200160002060003373ffffffffffffffffffffffffffffffffffffffff1673ffffffffffffffffffffffffffffffffffffffff1681526020019081526020016000206000828254610de89190612ba3565b925050819055503373ffffffffffffffffffffffffffffffffffffffff16837f0b5b4c52969ff7329ecf7ee536409fda87812b15a8622bc6e8cdeab3aee14a2684604051610e369190611c1f565b60405180910390a350610e4761186a565b5050565b60008073ffffffffffffffffffffffffffffffffffffffff168773ffffffffffffffffffffffffffffffffffffffff1603610ebb576040517f08c379a0000000000000000000000000000000000000000000000000000000008152600401610eb290612c23565b60405180910390fd5b60008411610efe576040517f08c379a0000000000000000000000000000000000000000000000000000000008152600401610ef590612c8f565b60405180910390fd5b428311610f40576040517f08c379a0000000000000000000000000000000000000000000000000000000008152600401610f3790612d21565b60405180910390fd5b60006001600060035481526020019081526020016000209050878160000160006101000a81548173ffffffffffffffffffffffffffffffffffffffff021916908373ffffffffffffffffffffffffffffffffffffffff16021790555086816001019081610fad9190612ee3565b5085816002019081610fbf9190612ee3565b508481600301819055508381600401819055506000816005018190555082816006019081610fed9190612ee3565b5060008160070160006101000a81548160ff02191690831515021790555060008160070160016101000a81548160ff0219169083151502179055508773ffffffffffffffffffffffffffffffffffffffff166003547fdc26653af5b99b2da33e2ad69ee6600d9aeccc82b034501db4338309615ca23889888860405161107593929190612fb5565b60405180910390a36003600081548092919061109090612ff3565b919050555060016003546110a4919061303b565b9150509695505050505050565b6060600060035467ffffffffffffffff8111156110d1576110d061205e565b5b60405190808252806020026020018201604052801561110a57816020015b6110f7611b92565b8152602001906001900390816110ef5790505b50905060005b6003548110156114b05760016000828152602001908152602001600020604051806101600160405290816000820160009054906101000a900473ffffffffffffffffffffffffffffffffffffffff1673ffffffffffffffffffffffffffffffffffffffff1673ffffffffffffffffffffffffffffffffffffffff16815260200160018201805461119f906126e5565b80601f01602080910402602001604051908101604052809291908181526020018280546111cb906126e5565b80156112185780601f106111ed57610100808354040283529160200191611218565b820191906000526020600020905b8154815290600101906020018083116111fb57829003601f168201915b50505050508152602001600282018054611231906126e5565b80601f016020809104026020016040519081016040528092919081815260200182805461125d906126e5565b80156112aa5780601f1061127f576101008083540402835291602001916112aa565b820191906000526020600020905b81548152906001019060200180831161128d57829003601f168201915b505050505081526020016003820154815260200160048201548152602001600582015481526020016006820180546112e1906126e5565b80601f016020809104026020016040519081016040528092919081815260200182805461130d906126e5565b801561135a5780601f1061132f5761010080835404028352916020019161135a565b820191906000526020600020905b81548152906001019060200180831161133d57829003601f168201915b505050505081526020016007820160009054906101000a900460ff161515151581526020016007820160019054906101000a900460ff161515151581526020016008820180548060200260200160405190810160405280929190818152602001828054801561141e57602002820191906000526020600020905b8160009054906101000a900473ffffffffffffffffffffffffffffffffffffffff1673ffffffffffffffffffffffffffffffffffffffff16815260200190600101908083116113d4575b505050505081526020016009820180548060200260200160405190810160405280929190818152602001828054801561147657602002820191906000526020600020905b815481526020019060010190808311611462575b5050505050815250508282815181106114925761149161306f565b5b602002602001018190525080806114a890612ff3565b915050611110565b508091505090565b6000606080600080600060606000806003548a1061150b576040517f08c379a000000000000000000000000000000000000000000000000000000000815260040161150290612696565b60405180910390fd5b6000600160008c815260200190815260200160002090508060000160009054906101000a900473ffffffffffffffffffffffffffffffffffffffff168160010182600201836003015484600401548560050154866006018760070160009054906101000a900460ff168860070160019054906101000a900460ff16878054611592906126e5565b80601f01602080910402602001604051908101604052809291908181526020018280546115be906126e5565b801561160b5780601f106115e05761010080835404028352916020019161160b565b820191906000526020600020905b8154815290600101906020018083116115ee57829003601f168201915b5050505050975086805461161e906126e5565b80601f016020809104026020016040519081016040528092919081815260200182805461164a906126e5565b80156116975780601f1061166c57610100808354040283529160200191611697565b820191906000526020600020905b81548152906001019060200180831161167a57829003601f168201915b505050505096508280546116aa906126e5565b80601f01602080910402602001604051908101604052809291908181526020018280546116d6906126e5565b80156117235780601f106116f857610100808354040283529160200191611723565b820191906000526020600020905b81548152906001019060200180831161170657829003601f168201915b50505050509250995099509950995099509950995099509950509193959799909294969850565b6002602052816000526040600020602052806000526040600020600091509150505481565b600460009054906101000a900473ffffffffffffffffffffffffffffffffffffffff1681565b6002600054036117da576040517f08c379a00000000000000000000000000000000000000000000000000000000081526004016117d1906130ea565b60405180910390fd5b6002600081905550565b6118658363a9059cbb60e01b848460405160240161180392919061310a565b604051602081830303815290604052907bffffffffffffffffffffffffffffffffffffffffffffffffffffffff19166020820180517bffffffffffffffffffffffffffffffffffffffffffffffffffffffff83818316178352505050506118fd565b505050565b6001600081905550565b6118f7846323b872dd60e01b85858560405160240161189593929190613133565b604051602081830303815290604052907bffffffffffffffffffffffffffffffffffffffffffffffffffffffff19166020820180517bffffffffffffffffffffffffffffffffffffffffffffffffffffffff83818316178352505050506118fd565b50505050565b600061195f826040518060400160405280602081526020017f5361666545524332303a206c6f772d6c6576656c2063616c6c206661696c65648152508573ffffffffffffffffffffffffffffffffffffffff166119c59092919063ffffffff16565b90506000815114806119815750808060200190518101906119809190613196565b5b6119c0576040517f08c379a00000000000000000000000000000000000000000000000000000000081526004016119b790613235565b60405180910390fd5b505050565b60606119d484846000856119dd565b90509392505050565b606082471015611a22576040517f08c379a0000000000000000000000000000000000000000000000000000000008152600401611a19906132c7565b60405180910390fd5b6000808673ffffffffffffffffffffffffffffffffffffffff168587604051611a4b919061332e565b60006040518083038185875af1925050503d8060008114611a88576040519150601f19603f3d011682016040523d82523d6000602084013e611a8d565b606091505b5091509150611a9e87838387611aaa565b92505050949350505050565b60608315611b0c576000835103611b0457611ac485611b1f565b611b03576040517f08c379a0000000000000000000000000000000000000000000000000000000008152600401611afa90613391565b60405180910390fd5b5b829050611b17565b611b168383611b42565b5b949350505050565b6000808273ffffffffffffffffffffffffffffffffffffffff163b119050919050565b600082511115611b555781518083602001fd5b806040517f08c379a0000000000000000000000000000000000000000000000000000000008152600401611b8991906133b1565b60405180910390fd5b604051806101600160405280600073ffffffffffffffffffffffffffffffffffffffff16815260200160608152602001606081526020016000815260200160008152602001600081526020016060815260200160001515815260200160001515815260200160608152602001606081525090565b6000819050919050565b611c1981611c06565b82525050565b6000602082019050611c346000830184611c10565b92915050565b6000604051905090565b600080fd5b600080fd5b611c5781611c06565b8114611c6257600080fd5b50565b600081359050611c7481611c4e565b92915050565b600060208284031215611c9057611c8f611c44565b5b6000611c9e84828501611c65565b91505092915050565b600081519050919050565b600082825260208201905092915050565b6000819050602082019050919050565b600073ffffffffffffffffffffffffffffffffffffffff82169050919050565b6000611cfe82611cd3565b9050919050565b611d0e81611cf3565b82525050565b6000611d208383611d05565b60208301905092915050565b6000602082019050919050565b6000611d4482611ca7565b611d4e8185611cb2565b9350611d5983611cc3565b8060005b83811015611d8a578151611d718882611d14565b9750611d7c83611d2c565b925050600181019050611d5d565b5085935050505092915050565b600081519050919050565b600082825260208201905092915050565b6000819050602082019050919050565b611dcc81611c06565b82525050565b6000611dde8383611dc3565b60208301905092915050565b6000602082019050919050565b6000611e0282611d97565b611e0c8185611da2565b9350611e1783611db3565b8060005b83811015611e48578151611e2f8882611dd2565b9750611e3a83611dea565b925050600181019050611e1b565b5085935050505092915050565b60006040820190508181036000830152611e6f8185611d39565b90508181036020830152611e838184611df7565b90509392505050565b611e9581611cf3565b82525050565b600081519050919050565b600082825260208201905092915050565b60005b83811015611ed5578082015181840152602081019050611eba565b60008484015250505050565b6000601f19601f8301169050919050565b6000611efd82611e9b565b611f078185611ea6565b9350611f17818560208601611eb7565b611f2081611ee1565b840191505092915050565b60008115159050919050565b611f4081611f2b565b82525050565b600061012082019050611f5c600083018c611e8c565b8181036020830152611f6e818b611ef2565b90508181036040830152611f82818a611ef2565b9050611f916060830189611c10565b611f9e6080830188611c10565b611fab60a0830187611c10565b81810360c0830152611fbd8186611ef2565b9050611fcc60e0830185611f37565b611fda610100830184611f37565b9a9950505050505050505050565b60008060408385031215611fff57611ffe611c44565b5b600061200d85828601611c65565b925050602061201e85828601611c65565b9150509250929050565b61203181611cf3565b811461203c57600080fd5b50565b60008135905061204e81612028565b92915050565b600080fd5b600080fd5b7f4e487b7100000000000000000000000000000000000000000000000000000000600052604160045260246000fd5b61209682611ee1565b810181811067ffffffffffffffff821117156120b5576120b461205e565b5b80604052505050565b60006120c8611c3a565b90506120d4828261208d565b919050565b600067ffffffffffffffff8211156120f4576120f361205e565b5b6120fd82611ee1565b9050602081019050919050565b82818337600083830152505050565b600061212c612127846120d9565b6120be565b90508281526020810184848401111561214857612147612059565b5b61215384828561210a565b509392505050565b600082601f8301126121705761216f612054565b5b8135612180848260208601612119565b91505092915050565b60008060008060008060c087890312156121a6576121a5611c44565b5b60006121b489828a0161203f565b965050602087013567ffffffffffffffff8111156121d5576121d4611c49565b5b6121e189828a0161215b565b955050604087013567ffffffffffffffff81111561220257612201611c49565b5b61220e89828a0161215b565b945050606061221f89828a01611c65565b935050608061223089828a01611c65565b92505060a087013567ffffffffffffffff81111561225157612250611c49565b5b61225d89828a0161215b565b9150509295509295509295565b600081519050919050565b600082825260208201905092915050565b6000819050602082019050919050565b600082825260208201905092915050565b60006122b282611e9b565b6122bc8185612296565b93506122cc818560208601611eb7565b6122d581611ee1565b840191505092915050565b6122e981611f2b565b82525050565b600082825260208201905092915050565b600061230b82611ca7565b61231581856122ef565b935061232083611cc3565b8060005b838110156123515781516123388882611d14565b975061234383611d2c565b925050600181019050612324565b5085935050505092915050565b600082825260208201905092915050565b600061237a82611d97565b612384818561235e565b935061238f83611db3565b8060005b838110156123c05781516123a78882611dd2565b97506123b283611dea565b925050600181019050612393565b5085935050505092915050565b6000610160830160008301516123e66000860182611d05565b50602083015184820360208601526123fe82826122a7565b9150506040830151848203604086015261241882826122a7565b915050606083015161242d6060860182611dc3565b5060808301516124406080860182611dc3565b5060a083015161245360a0860182611dc3565b5060c083015184820360c086015261246b82826122a7565b91505060e083015161248060e08601826122e0565b506101008301516124956101008601826122e0565b506101208301518482036101208601526124af8282612300565b9150506101408301518482036101408601526124cb828261236f565b9150508091505092915050565b60006124e483836123cd565b905092915050565b6000602082019050919050565b60006125048261226a565b61250e8185612275565b93508360208202850161252085612286565b8060005b8581101561255c578484038952815161253d85826124d8565b9450612548836124ec565b925060208a01995050600181019050612524565b50829750879550505050505092915050565b6000602082019050818103600083015261258881846124f9565b905092915050565b600080604083850312156125a7576125a6611c44565b5b60006125b585828601611c65565b92505060206125c68582860161203f565b9150509250929050565b6000819050919050565b60006125f56125f06125eb84611cd3565b6125d0565b611cd3565b9050919050565b6000612607826125da565b9050919050565b6000612619826125fc565b9050919050565b6126298161260e565b82525050565b60006020820190506126446000830184612620565b92915050565b7f496e76616c69642063616d706169676e20494400000000000000000000000000600082015250565b6000612680601383611ea6565b915061268b8261264a565b602082019050919050565b600060208201905081810360008301526126af81612673565b9050919050565b7f4e487b7100000000000000000000000000000000000000000000000000000000600052602260045260246000fd5b600060028204905060018216806126fd57607f821691505b6020821081036127105761270f6126b6565b5b50919050565b7f4f6e6c792063616d706169676e206f776e65722063616e207769746864726177600082015250565b600061274c602083611ea6565b915061275782612716565b602082019050919050565b6000602082019050818103600083015261277b8161273f565b9050919050565b7f43616d706169676e20646561646c696e65206e6f742072656163686564000000600082015250565b60006127b8601d83611ea6565b91506127c382612782565b602082019050919050565b600060208201905081810360008301526127e7816127ab565b9050919050565b7f546172676574206e6f74206d6574000000000000000000000000000000000000600082015250565b6000612824600e83611ea6565b915061282f826127ee565b602082019050919050565b6000602082019050818103600083015261285381612817565b9050919050565b7f46756e647320616c72656164792077697468647261776e000000000000000000600082015250565b6000612890601783611ea6565b915061289b8261285a565b602082019050919050565b600060208201905081810360008301526128bf81612883565b9050919050565b7f43616d706169676e207374696c6c206163746976650000000000000000000000600082015250565b60006128fc601583611ea6565b9150612907826128c6565b602082019050919050565b6000602082019050818103600083015261292b816128ef565b9050919050565b7f54617267657420776173206d6574000000000000000000000000000000000000600082015250565b6000612968600e83611ea6565b915061297382612932565b602082019050919050565b600060208201905081810360008301526129978161295b565b9050919050565b7f526566756e647320616c72656164792070726f63657373656400000000000000600082015250565b60006129d4601983611ea6565b91506129df8261299e565b602082019050919050565b60006020820190508181036000830152612a03816129c7565b9050919050565b7f4e6f20646f6e6174696f6e7320746f20726566756e6400000000000000000000600082015250565b6000612a40601683611ea6565b9150612a4b82612a0a565b602082019050919050565b60006020820190508181036000830152612a6f81612a33565b9050919050565b7f446f6e6174696f6e20616d6f756e74206d75737420626520677265617465722060008201527f7468616e20300000000000000000000000000000000000000000000000000000602082015250565b6000612ad2602683611ea6565b9150612add82612a76565b604082019050919050565b60006020820190508181036000830152612b0181612ac5565b9050919050565b7f43616d706169676e2068617320656e6465640000000000000000000000000000600082015250565b6000612b3e601283611ea6565b9150612b4982612b08565b602082019050919050565b60006020820190508181036000830152612b6d81612b31565b9050919050565b7f4e487b7100000000000000000000000000000000000000000000000000000000600052601160045260246000fd5b6000612bae82611c06565b9150612bb983611c06565b9250828201905080821115612bd157612bd0612b74565b5b92915050565b7f496e76616c6964206f776e657220616464726573730000000000000000000000600082015250565b6000612c0d601583611ea6565b9150612c1882612bd7565b602082019050919050565b60006020820190508181036000830152612c3c81612c00565b9050919050565b7f546172676574206d7573742062652067726561746572207468616e2030000000600082015250565b6000612c79601d83611ea6565b9150612c8482612c43565b602082019050919050565b60006020820190508181036000830152612ca881612c6c565b9050919050565b7f54686520646561646c696e652073686f756c642062652061206461746520696e60008201527f20746865206675747572652e0000000000000000000000000000000000000000602082015250565b6000612d0b602c83611ea6565b9150612d1682612caf565b604082019050919050565b60006020820190508181036000830152612d3a81612cfe565b9050919050565b60008190508160005260206000209050919050565b60006020601f8301049050919050565b600082821b905092915050565b600060088302612da37fffffffffffffffffffffffffffffffffffffffffffffffffffffffffffffffff82612d66565b612dad8683612d66565b95508019841693508086168417925050509392505050565b6000612de0612ddb612dd684611c06565b6125d0565b611c06565b9050919050565b6000819050919050565b612dfa83612dc5565b612e0e612e0682612de7565b848454612d73565b825550505050565b600090565b612e23612e16565b612e2e818484612df1565b505050565b5b81811015612e5257612e47600082612e1b565b600181019050612e34565b5050565b601f821115612e9757612e6881612d41565b612e7184612d56565b81016020851015612e80578190505b612e94612e8c85612d56565b830182612e33565b50505b505050565b600082821c905092915050565b6000612eba60001984600802612e9c565b1980831691505092915050565b6000612ed38383612ea9565b9150826002028217905092915050565b612eec82611e9b565b67ffffffffffffffff811115612f0557612f0461205e565b5b612f0f82546126e5565b612f1a828285612e56565b600060209050601f831160018114612f4d5760008415612f3b578287015190505b612f458582612ec7565b865550612fad565b601f198416612f5b86612d41565b60005b82811015612f8357848901518255600182019150602085019450602081019050612f5e565b86831015612fa05784890151612f9c601f891682612ea9565b8355505b6001600288020188555050505b505050505050565b60006060820190508181036000830152612fcf8186611ef2565b9050612fde6020830185611c10565b612feb6040830184611c10565b949350505050565b6000612ffe82611c06565b91507fffffffffffffffffffffffffffffffffffffffffffffffffffffffffffffffff82036130305761302f612b74565b5b600182019050919050565b600061304682611c06565b915061305183611c06565b925082820390508181111561306957613068612b74565b5b92915050565b7f4e487b7100000000000000000000000000000000000000000000000000000000600052603260045260246000fd5b7f5265656e7472616e637947756172643a207265656e7472616e742063616c6c00600082015250565b60006130d4601f83611ea6565b91506130df8261309e565b602082019050919050565b60006020820190508181036000830152613103816130c7565b9050919050565b600060408201905061311f6000830185611e8c565b61312c6020830184611c10565b9392505050565b60006060820190506131486000830186611e8c565b6131556020830185611e8c565b6131626040830184611c10565b949350505050565b61317381611f2b565b811461317e57600080fd5b50565b6000815190506131908161316a565b92915050565b6000602082840312156131ac576131ab611c44565b5b60006131ba84828501613181565b91505092915050565b7f5361666545524332303a204552433230206f7065726174696f6e20646964206e60008201527f6f74207375636365656400000000000000000000000000000000000000000000602082015250565b600061321f602a83611ea6565b915061322a826131c3565b604082019050919050565b6000602082019050818103600083015261324e81613212565b9050919050565b7f416464726573733a20696e73756666696369656e742062616c616e636520666f60008201527f722063616c6c0000000000000000000000000000000000000000000000000000602082015250565b60006132b1602683611ea6565b91506132bc82613255565b604082019050919050565b600060208201905081810360008301526132e0816132a4565b9050919050565b600081519050919050565b600081905092915050565b6000613308826132e7565b61331281856132f2565b9350613322818560208601611eb7565b80840191505092915050565b600061333a82846132fd565b915081905092915050565b7f416464726573733a2063616c6c20746f206e6f6e2d636f6e7472616374000000600082015250565b600061337b601d83611ea6565b915061338682613345565b602082019050919050565b600060208201905081810360008301526133aa8161336e565b9050919050565b600060208201905081810360008301526133cb8184611ef2565b90509291505056fea26469706673582212202ebaee93ce1755b1ed76dbb0e8347c88aea190eb904583f4e8b411db3ab5c42264736f6c63430008110033",
  "linkReferences": {},
  "deployedLinkReferences": {}
}